:100000000EC028C027C026C025C024C023C022C0DF
:1000100021C020C01FC01EC01DC0E2C0FFC01124EF
:100020001FBECFE5D2E0DEBFCDBF10E0A0E6B0E05E
:10003000E0EAF3E002C005900D92A437B107D9F7CA
:1000400010E0A4E7B0E001C01D92AE38B107E1F7BF
:1000500052D0A4C1D5CF2FB7F8949AE0E8B3ED7F82
:10006000E8BB00000000000000000000EDECF0E044
:100070003197F1F70000E8B380FDE26080FFED7F8B
:10008000E8BB089487959A9589F72FBF0895CF9379
:10009000DF93C82FD92F01C0DEDF89918823E1F7D4
:1000A0008DE0D9DF8AE0D7DFDF91CF910895CF933C
:1000B000C62F90E06CE770E04AE050E02CD1E7DF1B
:1000C000C33069F0C43018F4C23099F405C0C730A9
:1000D00049F0C93071F40BC0C09374000AC0C093DA
:1000E000750007C088B388BB88B3876F01C088B329
:1000F00088BBCF910895DF93CF93CDB7DEB76297DA
:100100000FB6F894DEBF0FBECDBFDE011196E0E65C
:10011000F0E082E101900D928150E1F787B387BB57
:10012000C19AB99ACE010196B2DFBB9A82E06BEC1C
:1001300070E047E550E03FD07894FFCF3699FECF8E
:1001400087B187B98FE887B98FE19EE40197F1F70E
:1001500000C0000086B1877D86B9329A86B1806C76
:1001600086B93699FECF08953699FECF87B1807152
:1001700087B982E087B98FE19EE40197F1F700C06B
:10018000000086B1877D86B9329A86B1806C86B9C7
:100190003699FECF0895823051F08F3F19F08130AB
:1001A00041F402C080EF0895DFDF84B1089585B186
:1001B000089580E0089580937700709379006093AC
:1001C000780050937B0040937A0087B3856087BBAB
:1001D000C29AC09AB89888EA8DB980EF8EB908950E
:1001E0001F920F920FB60F9211248F9310927600E8
:1001F000B898B29B02C0B09BFCCFB09902C088EF08
:1002000004C08FEF8093720088EA8DB980EF8EB9B9
:100210008F910F900FBE0F901F9018951F920F9205
:100220000FB60F9211242F933F934F935F936F93C9
:100230007F938F939F93AF93BF93EF93FF9380919F
:100240007600823099F1833030F4882361F0813078
:1002500009F050C01BC0843079F1843088F08530BB
:1002600009F048C02FC08FB1882331F08FB1869537
:1002700090917700891739F4789B35C081E034C0BC
:100280008FB1882319F088EA8DB91AC08091720065
:10029000E0917800F091790009958FB98FEF809304
:1002A000720082E080937600B89A0AC083E080935F
:1002B0007600B8981FB81CC085E080937600B89887
:1002C00080E717C0809172008F3F11F48FB109C091
:1002D000809172006FB1E0917A00F0917B000995F6
:1002E0008FEF8093720084E0809376001FB8B89AF5
:1002F0008EE78EB9FF91EF91BF91AF919F918F9152
:100300007F916F915F914F913F912F910F900FBE11
:100310000F901F901895FB019F01E8944230BCF0AC
:100320004532ACF44A3029F497FB1EF49095819540
:100330009F4F642F77271ED0805D8A330CF0895D34
:100340008193CB010097A9F716F45DE251931082D7
:10035000C90100C0DC01FC01672F71917723E1F72F
:10036000329704C07C916D9370836291AE17BF0782
:10037000C8F30895AA1BBB1B51E107C0AA1FBB1FEE
:10038000A617B70710F0A61BB70B881F991F5A9521
:10039000A9F780959095BC01CD010895F894FFCF01
:1003A0002D2D2054696E79383520426F6F74202DC1
:0403B0002D00FF001D
:00000001FF
