:100000000EC028C027C026C025C024C023C022C0DF
:1000100021C020C01FC01EC01DC0DCC0F9C01124FB
:100020001FBECFE5D2E0DEBFCDBF10E0A0E6B0E05E
:10003000E4E9F3E002C005900D92AE38B107D9F7BC
:1000400010E0AEE8B0E001C01D92A63AB107E1F7BA
:1000500073D09EC1D5CF2FB7F8949AE0E8B3ED7F67
:10006000E8BB00000000000000000000EDECF0E044
:100070003197F1F70000E8B380FDE26080FFED7F8B
:10008000E8BB089487959A9589F72FBF089536990C
:10009000FECF87B1807187B982E087B98FE19EE496
:1000A0000197F1F700C0000086B1877D86B9329ACA
:1000B00086B1806C86B93699FECF0895CF93DF93D1
:1000C000C82FD92F01C0C7DF89918823E1F78DE0C0
:1000D000C2DF8AE0C0DFDF91CF91089582E790E030
:1000E000EDDF0895CF93C82F90E064E970E04AE017
:1000F00050E00BD1E3DFC33091F0C43028F4C130BD
:1001000049F0C230B1F409C0C43079F0CF3F89F46E
:1001100080EF10C0BCDF84B10DC085B10BC088B3C7
:1001200098E0892788BB83E005C087EF88BB84E01F
:1001300001C080E0CF910895DF93CF93CDB7DEB7B4
:1001400062970FB6F894DEBF0FBECDBFDE011196E9
:10015000E0E6F0E082E101900D928150E1F787B393
:1001600087BBC19AB99ACE010196A8DFBB9A82E0FB
:1001700062E770E04EE650E018D07894FFCF3699F1
:10018000FECF87B187B98FE887B98FE19EE40197E9
:10019000F1F700C0000086B1877D86B9329A86B13A
:1001A000806C86B93699FECF089580938F00709346
:1001B000910060939000509393004093920087B316
:1001C000856087BBC29AC09AB89888EA8DB980EFDB
:1001D0008EB908951F920F920FB60F9211248F932C
:1001E00010928E00B898B29B02C0B09BFCCFB09921
:1001F00002C088EF04C08FEF80938D0088EA8DB92C
:1002000080EF8EB98F910F900FBE0F901F901895B1
:100210001F920F920FB60F9211242F933F934F937B
:100220005F936F937F938F939F93AF93BF93EF935E
:10023000FF9380918E00823099F1833030F48823CF
:1002400061F0813009F050C01BC0843079F18430F6
:1002500088F0853009F048C02FC08FB1882331F075
:100260008FB1869590918F00891739F4789B35C0AE
:1002700081E034C08FB1882319F088EA8DB91AC0A3
:1002800080918D00E0919000F091910009958FB9D7
:100290008FEF80938D0082E080938E00B89A0AC021
:1002A00083E080938E00B8981FB81CC085E08093CF
:1002B0008E00B89880E717C080918D008F3F11F4B1
:1002C0008FB109C080918D006FB1E0919200F091E3
:1002D000930009958FEF80938D0084E080938E00CA
:1002E0001FB8B89A8EE78EB9FF91EF91BF91AF9189
:1002F0009F918F917F916F915F914F913F912F913E
:100300000F900FBE0F901F901895FB019F01E8946E
:100310004230BCF04532ACF44A3029F497FB1EF46D
:10032000909581959F4F642F77271ED0805D8A33EB
:100330000CF0895D8193CB010097A9F716F45DE27B
:1003400051931082C90100C0DC01FC01672F71913B
:100350007723E1F7329704C07C916D9370836291AB
:10036000AE17BF07C8F30895AA1BBB1B51E107C016
:10037000AA1FBB1FA617B70710F0A61BB70B881F35
:10038000991F5A95A9F780959095BC01CD010895C4
:04039000F894FFCF0F
:100394002D2D2054696E79383520426F6F74202DCD
:1003A4002D002D2D2077726974652063616C6C6259
:0E03B40061636B206669726564202D2D00FF69
:00000001FF
