:100000000EC028C027C026C025C024C023C022C0DF
:1000100021C020C01FC01EC01DC04EC06BC0112417
:100020001FBECFE5D2E0DEBFCDBF10E0A0E6B0E05E
:10003000E8E8F3E002C005900D92AE38B107D9F7B9
:1000400010E0AEE8B0E001C01D92A63AB107E1F7BA
:100050001DD198C1D5CF2FB7F8949AE0E8B3ED7FC2
:10006000E8BB00000000000000000000EDECF0E044
:100070003197F1F70000E8B380FDE26080FFED7F8B
:10008000E8BB089487959A9589F72FBF08958093C8
:100090008F00709391006093900050939300409371
:1000A000920087B3856087BBC29AC09AB89888EAE5
:1000B0008DB980EF8EB908951F920F920FB60F92EF
:1000C00011248F9310928E00B898B29B02C0B09BFF
:1000D000FCCFB09902C088EF04C08FEF809360001E
:1000E00088EA8DB980EF8EB98F910F900FBE0F9077
:1000F0001F9018951F920F920FB60F9211242F93F5
:100100003F934F935F936F937F938F939F93AF939F
:10011000BF93EF93FF9380918E00823099F18330EB
:1001200030F4882361F0813009F050C01BC0843066
:1001300079F1843088F0853009F048C02FC08FB144
:10014000882331F08FB1869590918F00891739F40B
:10015000789B35C081E034C08FB1882319F088EADC
:100160008DB91AC080916000E0919000F0919100EB
:1001700009958FB98FEF8093600082E080938E00A5
:10018000B89A0AC083E080938E00B8981FB81CC04C
:1001900085E080938E00B89880E717C0809160005A
:1001A0008F3F11F48FB109C0809160006FB1E09171
:1001B0009200F091930009958FEF8093600084E0A6
:1001C00080938E001FB8B89A8EE78EB9FF91EF9199
:1001D000BF91AF919F918F917F916F915F914F915F
:1001E0003F912F910F900FBE0F901F901895369949
:1001F000FECF87B1807187B982E087B98FE19EE435
:100200000197F1F700C0000086B1877D86B9329A68
:1002100086B1806C86B93699FECF0895CF93DF936F
:10022000C82FD92F01C017DF89918823E1F78DE00E
:1002300012DF8AE010DFDF91CF91089583E790E02D
:10024000EDDF0895CF93C82F90E064E970E04AE0B5
:1002500050E055D0E3DFC23071F0C33018F4C13044
:1002600091F406C0C33049F0CF3F69F480EF0CC071
:10027000BEDF84B109C085B107C088B398E0892783
:1002800088BB83E001C080E0CF910895DF93CF93D6
:10029000CDB7DEB762970FB6F894DEBF0FBECDBF05
:1002A000DE011196E1E6F0E082E101900D928150CD
:1002B000E1F787B387BBC19AB99ACE010196AEDF49
:1002C000BB9A82E062E271E04EE151E0E0DE7894B8
:1002D000FFCF3699FECF87B187B98FE887B98FE115
:1002E0009EE40197F1F700C0000086B1877D86B9D2
:1002F000329A86B1806C86B93699FECF0895FB019B
:100300009F01E8944230BCF04532ACF44A3029F405
:1003100097FB1EF4909581959F4F642F77271ED0F1
:10032000805D8A330CF0895D8193CB010097A9F73A
:1003300016F45DE251931082C90100C0DC01FC019A
:10034000672F71917723E1F7329704C07C916D9309
:1003500070836291AE17BF07C8F30895AA1BBB1B39
:1003600051E107C0AA1FBB1FA617B70710F0A61BB5
:10037000B70B881F991F5A95A9F780959095BC01D6
:08038000CD010895F894FFCFB0
:10038800FF2D2D2054696E79383520426F6F742007
:100398002D2D002D2D2077726974652063616C6C9A
:0E03A8006261636B206669726564202D2D0012
:00000001FF
